{
  "contractName": "VoteShowingResult",
  "abi": [
    {
      "constant": true,
      "inputs": [
        {
          "name": "",
          "type": "uint256"
        }
      ],
      "name": "parties",
      "outputs": [
        {
          "name": "",
          "type": "string"
        }
      ],
      "payable": false,
      "stateMutability": "view",
      "type": "function",
      "signature": "0x70651a18"
    },
    {
      "constant": true,
      "inputs": [
        {
          "name": "",
          "type": "address"
        }
      ],
      "name": "voters",
      "outputs": [
        {
          "name": "",
          "type": "uint256"
        }
      ],
      "payable": false,
      "stateMutability": "view",
      "type": "function",
      "signature": "0xa3ec138d"
    },
    {
      "inputs": [],
      "payable": false,
      "stateMutability": "nonpayable",
      "type": "constructor",
      "signature": "constructor"
    },
    {
      "constant": false,
      "inputs": [
        {
          "name": "party",
          "type": "string"
        }
      ],
      "name": "vote",
      "outputs": [],
      "payable": false,
      "stateMutability": "nonpayable",
      "type": "function",
      "signature": "0xfc36e15b"
    },
    {
      "constant": true,
      "inputs": [],
      "name": "didVote",
      "outputs": [
        {
          "name": "",
          "type": "bool"
        }
      ],
      "payable": false,
      "stateMutability": "view",
      "type": "function",
      "signature": "0x5ac2701f"
    },
    {
      "constant": true,
      "inputs": [
        {
          "name": "party",
          "type": "string"
        }
      ],
      "name": "partyExists",
      "outputs": [
        {
          "name": "",
          "type": "bool"
        }
      ],
      "payable": false,
      "stateMutability": "view",
      "type": "function",
      "signature": "0xb9dcf172"
    },
    {
      "constant": true,
      "inputs": [
        {
          "name": "party",
          "type": "string"
        }
      ],
      "name": "votesOnParty",
      "outputs": [
        {
          "name": "",
          "type": "uint256"
        }
      ],
      "payable": false,
      "stateMutability": "view",
      "type": "function",
      "signature": "0xbc54bd9f"
    }
  ],
  "bytecode": "0x608060405234801561001057600080fd5b5060028060018154018082558091505090600182039060005260206000200160006040518060400160405280600b81526020017f4d6f646572617465726e610000000000000000000000000000000000000000008152509091909150908051906020019061007f929190610166565b505060028060018154018082558091505090600182039060005260206000200160006040518060400160405280601281526020017f536f6369616c64656d6f6b72617465726e610000000000000000000000000000815250909190915090805190602001906100ef929190610166565b505060028060018154018082558091505090600182039060005260206000200160006040518060400160405280601181526020017f4b616c6c65616e6b6120706172746965740000000000000000000000000000008152509091909150908051906020019061015f929190610166565b505061020b565b828054600181600116156101000203166002900490600052602060002090601f016020900481019282601f106101a757805160ff19168380011785556101d5565b828001600101855582156101d5579182015b828111156101d45782518255916020019190600101906101b9565b5b5090506101e291906101e6565b5090565b61020891905b808211156102045760008160009055506001016101ec565b5090565b90565b6109d58061021a6000396000f3fe608060405234801561001057600080fd5b506004361061007f576000357c0100000000000000000000000000000000000000000000000000000000900480635ac2701f1461008457806370651a18146100a6578063a3ec138d1461014d578063b9dcf172146101a5578063bc54bd9f14610278578063fc36e15b14610347575b600080fd5b61008c610402565b604051808215151515815260200191505060405180910390f35b6100d2600480360360208110156100bc57600080fd5b810190808035906020019092919050505061044b565b6040518080602001828103825283818151815260200191508051906020019080838360005b838110156101125780820151818401526020810190506100f7565b50505050905090810190601f16801561013f5780820380516001836020036101000a031916815260200191505b509250505060405180910390f35b61018f6004803603602081101561016357600080fd5b81019080803573ffffffffffffffffffffffffffffffffffffffff169060200190929190505050610506565b6040518082815260200191505060405180910390f35b61025e600480360360208110156101bb57600080fd5b81019080803590602001906401000000008111156101d857600080fd5b8201836020820111156101ea57600080fd5b8035906020019184600183028401116401000000008311171561020c57600080fd5b91908080601f016020809104026020016040519081016040528093929190818152602001838380828437600081840152601f19601f82011690508083019250505050505050919291929050505061051e565b604051808215151515815260200191505060405180910390f35b6103316004803603602081101561028e57600080fd5b81019080803590602001906401000000008111156102ab57600080fd5b8201836020820111156102bd57600080fd5b803590602001918460018302840111640100000000831117156102df57600080fd5b91908080601f016020809104026020016040519081016040528093929190818152602001838380828437600081840152601f19601f820116905080830192505050505050509192919290505050610615565b6040518082815260200191505060405180910390f35b6104006004803603602081101561035d57600080fd5b810190808035906020019064010000000081111561037a57600080fd5b82018360208201111561038c57600080fd5b803590602001918460018302840111640100000000831117156103ae57600080fd5b91908080601f016020809104026020016040519081016040528093929190818152602001838380828437600081840152601f19601f82011690508083019250505050505050919291929050505061070f565b005b600060018060003373ffffffffffffffffffffffffffffffffffffffff1673ffffffffffffffffffffffffffffffffffffffff1681526020019081526020016000205414905090565b60028181548110151561045a57fe5b906000526020600020016000915090508054600181600116156101000203166002900480601f0160208091040260200160405190810160405280929190818152602001828054600181600116156101000203166002900480156104fe5780601f106104d3576101008083540402835291602001916104fe565b820191906000526020600020905b8154815290600101906020018083116104e157829003601f168201915b505050505081565b60016020528060005260406000206000915090505481565b600080600090505b60028054905081101561060a576105ee60028281548110151561054557fe5b906000526020600020018054600181600116156101000203166002900480601f0160208091040260200160405190810160405280929190818152602001828054600181600116156101000203166002900480156105e35780601f106105b8576101008083540402835291602001916105e3565b820191906000526020600020905b8154815290600101906020018083116105c657829003601f168201915b5050505050846108b6565b156105fd576001915050610610565b8080600101915050610526565b50600090505b919050565b60006106208261051e565b1515610694576040517f08c379a00000000000000000000000000000000000000000000000000000000081526004018080602001828103825260198152602001807f5061727479206973206e6f7420696e207468697320766f74650000000000000081525060200191505060405180910390fd5b600080836040518082805190602001908083835b6020831015156106cd57805182526020820191506020810190506020830392506106a8565b6001836020036101000a038019825116818451168082178552505050505050905001915050908152602001604051809103902080549050905080915050919050565b610717610402565b15151561072357600080fd5b61072c8161051e565b15156107a0576040517f08c379a00000000000000000000000000000000000000000000000000000000081526004018080602001828103825260198152602001807f5061727479206973206e6f7420696e207468697320766f74650000000000000081525060200191505060405180910390fd5b60018060003373ffffffffffffffffffffffffffffffffffffffff1673ffffffffffffffffffffffffffffffffffffffff168152602001908152602001600020819055506000816040518082805190602001908083835b60208310151561081c57805182526020820191506020810190506020830392506107f7565b6001836020036101000a03801982511681845116808217855250505050505090500191505090815260200160405180910390203390806001815401808255809150509060018203906000526020600020016000909192909190916101000a81548173ffffffffffffffffffffffffffffffffffffffff021916908373ffffffffffffffffffffffffffffffffffffffff1602179055505050565b6000816040516020018082805190602001908083835b6020831015156108f157805182526020820191506020810190506020830392506108cc565b6001836020036101000a03801982511681845116808217855250505050505090500191505060405160208183030381529060405280519060200120836040516020018082805190602001908083835b6020831015156109655780518252602082019150602081019050602083039250610940565b6001836020036101000a038019825116818451168082178552505050505050905001915050604051602081830303815290604052805190602001201490509291505056fea165627a7a72305820fedab065f50abcb4a5494c8fbccd9ac6f8947cb26d2515ddf63aeb47b24c5f2c0029",
  "source": "pragma solidity ^0.5.5;\n\ncontract VoteShowingResult {\n\n    mapping(string => address[]) private result;\n    mapping(address => uint) public voters;\n    string[] public parties;\n\n    // constructor(bytes32[] memory parties) public {\n        // We want to be able to make this type of constructor to work BUT\n        // using bytes32[] will require us to pass a certain type of data \n        // when migrating\n        // See: https://ethereum.stackexchange.com/questions/43751/does-solidity-support-passing-an-array-of-strings-to-a-contracts-constructor-ye\n    // }\n\n    constructor()\n    public \n    {\n        parties.push(\"Moderaterna\");\n        parties.push(\"Socialdemokraterna\");\n        parties.push(\"Kalleanka partiet\");\n    }\n\n    modifier eligibleToVote {\n        require(!didVote());\n        _;\n    }\n\n    function vote(string memory party)\n    public eligibleToVote\n    {\n        require(partyExists(party), \"Party is not in this vote\");\n\n        voters[msg.sender] = 1;\n        result[party].push(msg.sender);\n    }\n\n    function didVote()\n    public view\n    returns (bool)\n    {\n        return (voters[msg.sender] == 1);\n    }\n\n    function partyExists(string memory party)\n    public view\n    returns (bool)\n    {\n        for (uint i = 0; i < parties.length; i++) {\n            if (compareStringsByBytes(parties[i], party)) {\n                return true;\n            }\n        }\n        return false;\n    }\n\n    function votesOnParty(string memory party)\n    public view\n    returns (uint)\n    {\n        require(partyExists(party), \"Party is not in this vote\");\n\n        uint votesOnGivenParty = result[party].length;\n        return votesOnGivenParty;\n    }\n\n\n    function compareStringsByBytes\n    (\n        string memory s1, \n        string memory s2\n    ) \n    private pure \n    returns(bool)\n    {\n        return keccak256(abi.encodePacked(s1)) == keccak256(abi.encodePacked(s2));\n    }\n\n}",
  "sourcePath": "/Users/joakimmattsson/Programmering/skola/DATX02/contracts/contracts/VoteShowingResult.sol",
  "compiler": {
    "name": "solc",
    "version": "0.5.5+commit.47a71e8f.Emscripten.clang"
  },
  "schemaVersion": "3.0.2",
  "updatedAt": "2019-03-27T14:23:32.310Z",
  "devdoc": {
    "methods": {}
  },
  "userdoc": {
    "methods": {}
  }
}