{
  "contractName": "Vote",
  "abi": [
    {
      "constant": true,
      "inputs": [],
      "name": "vote",
      "outputs": [
        {
          "name": "",
          "type": "uint256"
        }
      ],
      "payable": false,
      "stateMutability": "view",
      "type": "function",
      "signature": "0x632a9a52"
    },
    {
      "inputs": [],
      "payable": false,
      "stateMutability": "nonpayable",
      "type": "constructor",
      "signature": "constructor"
    },
    {
      "constant": false,
      "inputs": [],
      "name": "doVote",
      "outputs": [
        {
          "name": "",
          "type": "uint256"
        }
      ],
      "payable": false,
      "stateMutability": "nonpayable",
      "type": "function",
      "signature": "0xdd5117b0"
    }
  ],
  "bytecode": "0x608060405234801561001057600080fd5b5060008060006101000a81548160ff0219169083151502179055506000600181905550610175806100426000396000f3fe608060405234801561001057600080fd5b5060043610610053576000357c010000000000000000000000000000000000000000000000000000000090048063632a9a5214610058578063dd5117b014610076575b600080fd5b610060610094565b6040518082815260200191505060405180910390f35b61007e61009a565b6040518082815260200191505060405180910390f35b60015481565b60008060009054906101000a900460ff16151515610120576040517f08c379a00000000000000000000000000000000000000000000000000000000081526004018080602001828103825260108152602001807f53656e6465722063616e7420766f74650000000000000000000000000000000081525060200191505060405180910390fd5b60016000806101000a81548160ff0219169083151502179055506001808190555060015490509056fea165627a7a72305820d5cb895418ca8271ab5d70885344df984f42b4fc4a5655be8f927eb771a139870029",
  "source": "/*\n\n    Test contract to check that project works as intended.\n\n*/\n\npragma solidity ^0.5.5;\n\ncontract Vote {\n\n    bool private didVote;\n    uint public vote;\n\n    constructor() public {\n        didVote = false;\n        vote = 0;\n    }\n\n    modifier eligibleToVote {\n        require(!didVote, \"Sender cant vote\");\n        _;\n    }\n\n    function doVote(\n\n    ) \n    public eligibleToVote\n    returns (uint) \n    {\n        didVote = true;\n        vote = 1;\n\n        return vote;\n    }\n\n}",
  "sourcePath": "/Users/joakimmattsson/Programmering/skola/DATX02/contracts/contracts/Vote.sol",
  "compiler": {
    "name": "solc",
    "version": "0.5.5+commit.47a71e8f.Emscripten.clang"
  },
  "schemaVersion": "3.0.2",
  "updatedAt": "2019-03-27T14:23:32.304Z",
  "devdoc": {
    "methods": {}
  },
  "userdoc": {
    "methods": {}
  }
}